:020000040800F2
:10000000C0D60120390300083336000871290008E2
:100010003136000899090008A93A000800000000DC
:10002000000000000000000000000000790200084D
:100030009D0A000800000000D502000825380008CD
:100040005303000853030008530300085303000838
:100050005303000853030008530300085303000828
:100060005303000853030008530300085303000818
:100070005303000853030008530300085303000808
:100080005303000853030008530300080000000056
:100090000000000000000000000000005303000802
:1000A000E538000853030008530300085303000811
:1000B00053030008F13800085303000853030008F5
:1000C00053030008530300085303000853030008B8
:1000D0005303000853030008530300080000000006
:1000E00053030008530300085303000800000000F6
:1000F00000000000000000000000000053030008A2
:1001000000000000530300085303000853030008D5
:1001100000000000000000000000000000000000DF
:100120005303000853030008910A00085303000812
:100130005303000800000000000000000000000061
:100140000000000000000000000000005303000851
:100150005303000853030008530300085303000827
:1001600053030008530300080000000000000000D3
:10017000000000000000000000000000000000007F
:100180000000000053030008000000000000000011
:10019000530300085303000800F002F800F05CF875
:1001A0000AA090E8000C82448344AAF10107DA45D2
:1001B00001D100F051F8AFF2090EBAE80F0013F0C8
:1001C000010F18BFFB1A43F001031847DCF80400C5
:1001D000FCF804000A444FF0000C10F8013B13F047
:1001E000070408BF10F8014B1D1108BF10F8015B90
:1001F000641E05D010F8016B641E01F8016BF9D183
:1002000013F0080F1EBF10F8014BAD1C0C1B09D1D9
:100210006D1E58BF01F801CBFAD505E014F8016B4B
:1002200001F8016B6D1EF9D59142D6D370470000DD
:100230000023002400250026103A28BF78C1FBD8EF
:10024000520728BF30C148BF0B6070471FB530F060
:10025000B1FE1FBD10B510BD00F00AFB1146FFF73F
:10026000F5FF28F01FFC00F028FB03B4FFF7F2FFB6
:1002700003BC00F095FA00002C4B19680868B0E840
:10028000F04F80F30988BFF36F8F4FF0000080F3C9
:10029000118870470000000008480068006880F37B
:1002A00008884FF0000080F3148862B661B6BFF38F
:1002B0004F8FBFF36F8F00DF00BF00BF08ED00E07E
:1002C000DFF80C00016841F470010160704700BF65
:1002D00088ED00E0EFF30980BFF36F8F134B1A68CE
:1002E0001EF0100F08BF20ED108A20E9F04F1060BB
:1002F00009B44FF0500080F31188BFF34F8FBFF364
:100300006F8F2FF089FF4FF0000080F3118809BC38
:1003100019680868B0E8F04F1EF0100F08BFB0EC85
:10032000108A80F30988BFF36F8F70479002002016
:10033000EFF30580704700000948804709480047EF
:10034000FEE7FEE7FEE7FEE7FEE7FEE7FEE7FEE785
:10035000FEE7FEE704480549054A064B70470000E2
:10036000D538000899010008C0C40120C0D601207A
:10037000C0C80120C0C8012053EA020C00F0698007
:100380002DE9F04B4FF00006002B1FBFB3FA83F5A9
:1003900003FA05F424FA05F65E4012BF1643B2FADA
:1003A00082F502FA05F4C5F120051EBF22FA05FC0C
:1003B00044EA0C04203556EA044C4FEA144418BFB2
:1003C000641C4FF000084FF00009904271EB030CE1
:1003D00039D3002919BFB1FA81F701FA07F6B0FA4B
:1003E00080F700FA07F6C7F120071EBF20FA07FCC6
:1003F00046EA0C062037B6FBF4FCA7EB0507103FD6
:1004000007F01F0BCBF120060CFA0BFB2CFA06F6BB
:1004100044BFB3460026202FA4BF5E464FF0000B1A
:100420005BEA060C08BF4FF0010B19EB0B09ABFBA5
:10043000027C48EB0608C01B06FB02CC0BFB03CC7E
:1004400071EB0C01C1E70B46024641464846BDE848
:10045000F08B13B54FF000004FF00001AFF30080B8
:10046000BDE81C40704710B5002000F09FF9FFF771
:10047000F1FEBDE81040012000F092B940EA01030E
:10048000024630B59B0710D14FF0013400E008C29E
:1004900008C91D1B9D4315EAC41FF8D013F0FF01C6
:1004A00002F8011B0DD01B0AF8E711F8013B002BE5
:1004B00002F8013B05D011F8013B002B02F8013B8B
:1004C000F3D130BD10B5431C02E010F8011B71B12F
:1004D0008107FAD14FF0013202C88C1A8C4314EA1A
:1004E000C211F9D0C01A0A0603D0C01E10BDC01A2E
:1004F00010BD0A0401D0801E10BD0902FCD0401EB0
:1005000010BD032A40F2308010F0030C00F015807B
:1005100011F8013BBCF1020F624498BF11F801CB06
:1005200000F8013B38BF11F8013BA2F1040298BF6B
:1005300000F801CB38BF00F8013B11F0030300F0D5
:100540006780083AC0F0088051F8043B083A51F837
:1005500004CBA0E80810F5E7121D5CBF51F8043B7E
:1005600040F8043BAFF30080D20724BF11F8013BF1
:1005700011F801CB48BF11F8012B24BF00F8013B53
:1005800000F801CB48BF00F8012B7047431A28BF81
:100590009A427FF6B6AF032A1044114440F22680F7
:1005A00010F0030F1EBF11F8013D521E00F8013D6F
:1005B00010F0030F7FF4F6AF11F0030300F0108189
:1005C000083AC0F00B8051F8043D083A51F804CDC8
:1005D00040F8043D40F804CDFFF7F3BF121D5CBFA7
:1005E00051F8043D40F8043DAFF30080D20724BF2A
:1005F00011F8013D11F801CD48BF11F8012C24BFBD
:1006000000F8013D00F801CD48BF00F8012C70470B
:1006100010B5203AC0F00B80B1E81850203AA0E89D
:100620001850B1E81850A0E81850BFF4F5AF5FEAD1
:10063000027C24BFB1E81850A0E8185044BF18C984
:1006400018C0BDE810405FEA827C24BF51F8043B2B
:1006500040F8043B08BF7047D20728BF31F8023B7F
:1006600048BF11F8012B28BF20F8023B48BF00F813
:10067000012B704702F0FF0343EA032242EA0242E1
:1006800000F002B84FF000020429C0F0128010F010
:10069000030C00F01B80CCF1040CBCF1020F18BF5E
:1006A00000F8012BA8BF20F8022BA1EB0C0100F0F1
:1006B0000DB85FEAC17C24BF00F8012B00F8012BC4
:1006C00048BF00F8012B70474FF0000200B51346F9
:1006D00094469646203922BFA0E80C50A0E80C5062
:1006E000B1F12001BFF4F7AF090728BFA0E80C5013
:1006F00048BF0CC05DF804EB890028BF40F8042B0C
:1007000008BF704748BF20F8022B11F0804F18BF78
:1007100000F8012B704700004FF0013C50F8042B0B
:1007200051F8043B9A4221D1A2EB0C03934313EA04
:10073000CC1317D150F8042B51F8043B9A4215D131
:10074000A2EB0C03934313EACC130BD150F8042B08
:1007500051F8043B9A4209D1A2EB0C03934313EAEC
:10076000CC13DBD04FF00000704700BFD01A01BAA5
:10077000B1FA81F101F0180122FA01F0CB40C1F188
:100780002001DBB2C0B2C01A2CFA01F3D11A914396
:1007900011EAC311E6D170477047704770470000F7
:1007A00001491820ABBEFEE72600020010B500F09C
:1007B00047F8BDE8104000F03EB8431A28BF9A42FF
:1007C0007FF626AF104410F0030F11441EBF11F83E
:1007D000013D521E00F8013D10F0030F7FF4F6AF0B
:1007E000103AC0F00A8010B531E91850103A20E9EB
:1007F0001850BFF4F9AFBDE81040530724BF31E9EA
:10080000081020E9081044BF51F8043D40F8043DA9
:1008100012F0030F08BF7047D20728BF31F8023D1E
:1008200048BF11F8012C28BF20F8023D48BF00F84E
:10083000012C70477047002801D0FFF7B1BF704707
:1008400010B5002102A000F041F8012010BD000009
:10085000534947414252543A2041626E6F726D6172
:100860006C207465726D696E6174696F6E00000052
:10087000754600F04BF8AE4605006946534620F039
:100880000700854618B020B5FFF764FDBDE820409D
:100890004FF000064FF000074FF000084FF0000B3C
:1008A00021F00701AC46ACE8C009ACE8C009ACE8EF
:1008B000C009ACE8C0098D46704710B50446AFF3D7
:1008C00000802046BDE81040FFF7CFBC70B505465C
:1008D0000C460A2000E06D1C00F011F835B12878B4
:1008E0000028F8D102E0641C00F009F814B1207867
:1008F0000028F8D1BDE870400A20AFF3008008B5A9
:1009000069468DF800000320ABBE08BD0048704763
:1009100060C401201C4D1D4C0421284600F04EFEF1
:10092000A0704FF48061284600F048FE60700421FA
:10093000284600F043FE012821D04FF4806128466C
:1009400000F03CFE01281AD0114800F0C7FA4FF41D
:10095000FA710F4800F05CFA0D4800F063F910F4EA
:10096000007003D00A4800F05FF980B24CF6CD4128
:100970004843C0F3C741217006482FF047FA4FF4AF
:10098000FA7028F05DFCC7E7000402408C020020EA
:10099000100300202C370120FEE700000222152161
:1009A000014802F09CB900002000002000B583B08F
:1009B00001A800900423032215210E4802F023F918
:1009C0009DF804109DF8050001F00F0140EA012197
:1009D000094A9DF806309DF80700C1F1EF0103F0C8
:1009E0000F03116040EA032040F21711081A50600B
:1009F00003B000BD200000201800002010B586B014
:100A0000002004901348016841F002010160006871
:100A1000114C00F0020005904FF48070009001200E
:100A200001900290032003906946204600F0C8FC24
:100A300001221102204600F0C6FD084801F099FF8E
:100A400006B00523F922BDE810401521034802F045
:100A500087B9000030380240000402402000002026
:100A600010B50A4C00224FF48071204600F0ABFD17
:100A70000A2000F091FC01221102204600F0A3FDA3
:100A8000BDE81040642000F087BC00000004024074
:100A9000014800F095BA000004040020704772B6C7
:100AA000FEE7000038B44FF0000CCDF800C090F81D
:100AB0003C20012A02BF022038BC7047012280F886
:100AC0003C200A6807240368092A13D9DD680A3A1A
:100AD00002EB420204FA02F225EA0202DA600A7824
:100AE0008B680A3A02EB420293400268D4682343BF
:100AF000D36010E01D6902EB420204FA02F225EA1B
:100B000002021A610A788B6802EB42029340026883
:100B10001469234313614A681F24072A15D2036806
:100B20005D6B521E02EB820204FA02F225EA020217
:100B30005A630A8893B20A79521E02EB82029340EA
:100B40000268546B234353632BE003680D2A14D2CD
:100B50001D6BD21F02EB820204FA02F225EA0202A6
:100B60001A630A8893B20A79D21F02EB8202934079
:100B70000268146B2343136313E0DD6A0D3A02EB42
:100B8000820204FA02F225EA0202DA620A8893B2C9
:100B90000A790D3A02EB820293400268D46A234339
:100BA000D3621C4B04681A4A9C4204BF0C68122C86
:100BB00007D1546824F400045460546844F4800459
:100BC000546004689C421DD1134C0B68A34218BFAB
:100BD000112B17D1536823F480035360536843F4F7
:100BE000000353600968A1420CD10C490C4A096802
:100BF000B1FBF2F101EB81014900009102D0491EE5
:100C00000091FCD180F83CC038BC00207047000047
:100C100000230140002001401200001014000020B9
:100C200040420F00006C70470068C06C70470000C5
:100C30002DE9F04104004FF0000504BF0120BDE89C
:100C4000F081564F206C002628B9204600F0AEF8FF
:100C5000666484F83C60206C10F0100F18BF01250A
:100C600004D084F83C602846BDE8F081206C20F474
:100C7000885040F0020020644948416821F4403126
:100C8000416041686268114341602068416821F415
:100C90008071416020684168226941EA0221416017
:100CA0002068416821F04071416020684168A26875
:100CB000114341602068816821F4006181602068EF
:100CC0008168E26811438160A06AB8422068816847
:100CD00021F0706181602068816808BF21F0405177
:100CE0000BD0A26A114381602068816821F04051D5
:100CF000816020688168E26A1143816020688168B0
:100D000021F00201816020688168227E41EA42016F
:100D1000816094F8200000282068416808BF21F411
:100D200000610ED041F4006141602068416821F407
:100D300060414160206841681A4B626A03EB4232AD
:100D4000114341602068C16A21F47001C1622068CA
:100D5000C16AA28B144B03EB02521143C16220689B
:100D6000816821F4007181602068816894F83020E6
:100D700041EA422181602068816821F480618160BC
:100D800020688168626941EA822181606664206C22
:100D900020F0020040F00100206462E70100000F33
:100DA0000023014000E0FFFF0000F0FF00B587B026
:100DB0000021009101910291039104910168A1F138
:100DC0008040B0F590301CBF07B000BD0D480168F1
:100DD00041F480710160006800F4807005900A4859
:100DE000016841F0040101600068694600F00400F8
:100DF00005902020009003200190044800F0E0FAC4
:100E000007B000BD443802403038024000080240BC
:100E10002DE9F041044600680D4681684FF0000757
:100E200011F4806F1CBF806810F4807F08D0206CA4
:100E300040F02000206484F83C700120BDE8F0817F
:100E400000F0C6FB06462068006810F0020F12D1C1
:100E5000B5F1FF3F0AD025B100F0BAFB801BA842D4
:100E600004D92068006810F0020F15D020680068CF
:100E700010F0020FECD021686FF012000860206CB7
:100E800040F4007020642068816811F0405F04BF66
:100E9000217E00291ED109E0206C40F0040020646E
:100EA00084F83C704FF00300BDE8F081C16A11F492
:100EB000700F1CBF806810F4806F0BD1206C20F481
:100EC00080702064206C10F4805F03D1206C40F0AF
:100ED000010020644FF00000BDE8F08181B00022E5
:100EE000009290F83C10012902BF022001B0704727
:100EF000012180F83C1001688B6813F0010F0FD1BD
:100F00008B6843F001038B602A492B4B0968B1FBC6
:100F1000F3F111EB4101009102D0491E0091FCD187
:100F200001688B6813F0010F39D0036C23F00103C3
:100F300023F4C06343F4807303644B6813F4806F3D
:100F400005D0036C23F4005343F480530364036C13
:100F500013F4805F08BF426403D0436C23F00603A0
:100F6000436480F83C20154A6FF022030B605168FF
:100F7000006811F01F0F09D0A0F18041B1F5903148
:100F800004BF816811F0405F04D010E0816811F067
:100F9000405F0CD1816841F08041816007E0016CC5
:100FA00041F010010164416C41F0010141640020F5
:100FB00001B070471400002040420F0000230140A0
:100FC0002DE9F84304464FF00008CDF8008073483F
:100FD0004FF41651A56D0068B0FBF1F72E6894F838
:100FE0005C00082101FA00F0304211D0206802684C
:100FF00012F0040F0CD0026822F00402026094F890
:101000005C0001FA00F0A860606D40F001006065CE
:1010100094F85C004FF0010909FA00F0304209D061
:101020002168496911F0800F04D0A860606D40F01C
:101030000200606594F85C1004208840304209D0BA
:101040002168096811F0020F04D0A860606D40F0BB
:101050000400606594F85C1010208840304220D075
:101060002168096811F0080F1BD0A860206801688A
:1010700011F4802F09D0006810F4002F02D0A16C69
:1010800079B10CE0216C51B90BE0016811F4807F5B
:1010900003D1016821F008010160216C09B12046EB
:1010A000884794F85C102020884030424AD021685C
:1010B000096811F0100F45D0A86094F83500052894
:1010C0002068016809D011F4802F2BD0006810F43B
:1010D000002F24D0E16B21B332E021F01601016032
:1010E0002068416921F080014161206C002804BF23
:1010F000A06C002804D02068016821F0080101607C
:1011000094F85C004FF03F0101FA00F0A86084F809
:10111000359084F83480216DD1BBBDE8F883616CD3
:1011200071B90FE0016811F4807F07D1016821F0E7
:101130001001016084F8359084F83480E16B09B1C6
:1011400020468847606D002808BFBDE8F883606DC1
:1011500010F0010F17D04FF0050084F8350020681B
:10116000016821F001010160009800F10100009088
:10117000B84204D82068006810F0010FF4D184F858
:10118000359084F83480E16C002908BFBDE8F8830D
:10119000204601B0BDE8F0430847000014000020DD
:1011A00070B5044600F014FA0646002C04BF012076
:1011B00070BD022084F83500002584F83450206882
:1011C000016821F0010101602068006810F0010F42
:1011D0000FD000F0FDF9801B052805D9202060659F
:1011E000032084F8350070BD2068006810F0010FFE
:1011F000EFD1216808683D4A1040D4E901231A4321
:10120000D4E9033C43EA0C031A4363691A43A36914
:101210001A43E3691A43236A1A431043626A042A91
:1012200003D1D4E90B231A43104308602668706980
:10123000012320F00701606A40EA010204283AD144
:10124000A16AE06A0A4330B3D4F818C0BCF1000FB9
:101250000AD0BCF5005F14D000291CBF0129022967
:1012600021D003291CD026E019B1012905D002297B
:1012700021D110F0807F1ED015E0B0F1C07F1AD1CF
:1012800011E081B1012907D002290CD0032908BF40
:10129000B0F1C07F07D00EE010F0807F03D10AE0EC
:1012A00010F0807F07D04FF04000606584F8353043
:1012B0004FF0010070BD726120680D4AC1B2A1F10A
:1012C0001001A2FB01210B4A4FEA11110329525CC4
:1012D000E2656FF3090088BF001D3F219140A065C2
:1012E0008160656584F83530002070BD3F8010F066
:1012F000ABAAAAAA0810030870B490F834C000245E
:10130000856DBCF1010F02BF022070BC70474FF029
:10131000010C80F834C090F835604FF0000C012EBD
:101320001CBF80F834C0022402D0204670BC704735
:10133000022680F83560C0F854C0D0F800C0DCF850
:10134000006026F48026CCF80060D0F800C0CCF80D
:1013500004308368402B036803BF9A600268D16041
:1013600099601CBF0168CA6090F85C103F2202FAC5
:1013700001F1A96001680A6842F016020A60016C76
:1013800021B101680A6842F008020A600068016839
:1013900041F001010160C8E770B5044600F018F99A
:1013A0000546B4F1FF3F02D004480078044400F041
:1013B0000FF9401BA042FAD370BD000008000020C6
:1013C0002DE9F84FDFF8E8A10022DFF8E0914FF0B7
:1013D000010E03274FF00F080AF1040B0B680EFAF9
:1013E00002FC03EA0C0363457ED10C7904F003048C
:1013F000012C18BF022C18D185684FEA420407FA65
:1014000004F625EA0605CE6806FA04F444EA050463
:101410008460446824EA0C0C0C79C4F3001404FAC8
:1014200002F444EA0C0CC0F804C0D1F804C037EA56
:101430000C0C0CD0C4684FEA420C07FA0CF5AC4314
:101440008D6805FA0CFC4CEA040CC0F80CC091F84D
:1014500004C00CF0030CBCF1020F12D14FEAD20C05
:1014600000EB8C04256A4FEA427C4FEADC6C08FAF8
:101470000CF6B5430E6906FA0CFC4CEA050CC4F8F0
:1014800020C004684FEA420C07FA0CF5AC430D7912
:1014900005F0030505FA0CFC4CEA040CC0F800C08A
:1014A000D1F804C01CF4403F79D0D9F800C04CF406
:1014B000804CC9F800C0D9F800C00CF4804CCDF8BD
:1014C00000C022F0030C0CF1804505F59835D5F8E5
:1014D00008C89407240F08FA04F62CEA0606A0F1BF
:1014E000804CBCF5003C00E059E020D0A0F1804CDD
:1014F000BCF5013C08BF4FF0010C18D0A0F1804CA6
:10150000BCF5023C08BF4FF0020C10D0A0F1804C9B
:10151000BCF5033C08BF4FF0030C08D0A0F1804C91
:10152000BCF5043C0CBF4FF0040C4FF0070C0CFA58
:1015300004FC4CEA060CC5F808C8DAF800C04C6890
:101540002CEA030C14F4801F18BF4CEA030CCAF8F1
:1015500000C0DBF800C04C682CEA030C14F4001F38
:1015600018BF4CEA030CCBF800C0124CD4F800C0F2
:101570004D682CEA030C15F4003F18BF4CEA030C2D
:10158000C4F800C00C4CD4F800C04D682CEA030C21
:1015900015F4803F18BF4CEA030CC4F800C0521C7D
:1015A000102AFFF41BAFBDE8F88F0000443802405A
:1015B000083C0140043C0140003C014000690840F7
:1015C00018BF01207047002A08BF090481617047D5
:1015D000014880687047000008000020002804BF10
:1015E0000120704770B5044690F83D00002520B9F1
:1015F00084F83C50204600F0C5F8242084F83D00D3
:101600002068016821F0010101602068016841F44F
:10161000004101602068016821F40041016000F090
:10162000A9FA544B6168994203D85349814203D8BF
:1016300004E05249814201D9012070BD504922681D
:10164000B0FBF1F1D2F804C02CF03F0C4CEA010CD5
:10165000C2F804C06268934228BF4A1C07D24FF404
:10166000967251434FF47A72B1FBF2F14A1C216831
:10167000D1F820C02CF03F0C42EA0C020A626168EB
:101680008B420FD34900401EB0FBF1F2521CC2F353
:101690000B02042A31BF0420B0FBF1F0401CC0F360
:1016A0000B0022E0A268002A52D001EBC10303EB39
:1016B0000113A0F1010CBCFBF3F35B1C43F480436A
:1016C0001B051B0D08BF01200FD0002A48D001EBDD
:1016D000C10202EB0111401EB0FBF1F0401CC0F34F
:1016E0000B0040F4804040F400402168CA6922F0B9
:1016F000FF0222F44F421043C861D4E907010143BD
:101700002068026822F0C00211430160D4E903108E
:1017100001432068826822F0FF0222F40342114351
:101720008160D4E9050101432068C26822F0FF020C
:101730001143C1602068016841F001010160256426
:10174000202084F83D00256384F83E50002070BDC1
:1017500001EB4103A0F1010CBCFBF3F35B1CAFE711
:1017600001EB4101401EB0FBF1F0401CC0F30B0047
:10177000B9E70000A086010080841E0000093D003A
:1017800040420F00F0B587B0002400940194029409
:10179000039404940068A0F18041B1F5B8411CBFE6
:1017A00007B0F0BD1948016841F00401016001680B
:1017B00001F004010591016841F001010160006838
:1017C000122500F0010005904FF40070CDE90005EE
:1017D0000326042769460E48CDE90367FFF7F0FDAD
:1017E000B801CDE90005CDE90246694604970948EC
:1017F000FFF7E6FD0848016841F400010160006858
:1018000000F40000059007B0F0BD00003038024041
:10181000000802400000024040380240024881684F
:101820000278114481607047080000200B4810B511
:10183000016841F400710160016841F48061016058
:10184000016841F480710160032000F0AFF80F20BF
:1018500000F006F800F04AF8002010BD003C0240FD
:1018600030B505461C4887B00024016841F480313A
:101870000160006805A900F480300690684600F019
:1018800059F900F087F91549154AB0FBF1F0411EEE
:101890001448026040F2E732C0E90324C0E90114B1
:1018A000846100F00CFE040012D10E4800F052FEDC
:1018B00004000DD1182000F037F8102D28BF0124A6
:1018C00006D200222946182000F03EF8064805609E
:1018D00007B0204630BD00004438024040420F00AF
:1018E00000400140F40400200C0000200C4882B0AD
:1018F000016841F480410160006800F4804000907C
:101900000848016841F0805101600068002200F041
:10191000805000900F21901E02B000F015B800001A
:1019200044380240403802400028B8BF704700F0F9
:101930001F01012202FA01F14009800000F1E020BC
:10194000C0F8001170470000174B10B41B68C3F3B8
:101950000223C3F1070CBCF1040F88BF4FF0040C45
:101960001C1D072C34BF0023DB1E012404FA0CFCD1
:10197000ACF1010C0CEA0101994004FA03F35B1E7F
:101980001A40114300284FEA0111A1BF00F1E020E5
:1019900080F8001410BC704700F00F0000F1E02048
:1019A00080F8141D10BC70470CED00E0074A00F0F1
:1019B000070011684FF6FF03194041EA002040F08C
:1019C000FD7040F080601060704700000CED00E09A
:1019D000002804BF012070472DE9F047DFF83C9153
:1019E00004460D46D9F80000CFB200F00700A84227
:1019F00007D289F80070D9F8000000F00700A8426B
:101A000063D12068464E10F0020F14D010F0040F7E
:101A100003D0306840F4E0503060207810F0080FB8
:101A200003D0306840F4604030603068A16820F036
:101A3000F00008433060207810F0010F37D0606864
:101A40003849012823D0022818BF0328096823D069
:101A500011F0020F39D0316821F0030141EA000092
:101A60003060FFF7B5FD80463068616800F00C001B
:101A7000B0EB810F18BF41F2883A18D0FFF7A8FDEC
:101A8000A0EB080050450BD90320BDE8F08709689A
:101A900011F4003FDFD118E011F0007FDBD114E03A
:101AA0003068616800F00C00B0EB810FE6D1D9F826
:101AB000000000F00700A8420AD989F80070D9F8A0
:101AC000000000F00700A84202D00120BDE8F08726
:101AD000207810F0040F05D03068E16820F4E05061
:101AE00008433060207810F0080F06D03068216974
:101AF00020F4604040EAC100306000F05BF83168DB
:101B0000094AC1F30311515CC840084908600848FC
:101B10000068FFF7A5FE0020BDE8F087003C02400A
:101B2000083802400038024010100308140000205A
:101B30000C0000200F2202600C4A136803F003031C
:101B40004360136803F0F0038360136803F4E05309
:101B5000C36012684FF4E05303EAD2020261044802
:101B6000006800F007000860704700000838024075
:101B7000003C02400448054900680968044AC1F372
:101B80008221515CC8407047140000200838024090
:101B9000201003080448054900680968044AC1F395
:101BA0004231515CC84070471400002008380240A0
:101BB000201003081848006810F00C01174808BFEF
:101BC0007047174B042904BF18467047082918BFEF
:101BD000704710B5134C216801F03F02216811F4E1
:101BE000800F08D02068C0F38810A0FB03010023F9
:101BF000FEF7C2FB07E021680023C1F38811A1FBB7
:101C00000001FEF7B9FB2168C1F30141491C4900FD
:101C1000B0FBF1F010BD0000083802400024F400D1
:101C200040787D0104380240002804BF012070473D
:101C30002DE9F84F04460078F84E10F0010FA6F198
:101C4000040556D0301D016801F00C01042908D0AC
:101C5000006800F00C0008280CD1306810F4800FE8
:101C600008D0286810F4003F43D06068002800F0D6
:101C7000D1813EE06068B0F5803F19D0B0F5A02F6B
:101C800028680CBF40F4802020F480302860286849
:101C90000CBF40F4803020F4802028606068B8B128
:101CA000FFF796FC0746286810F4003F05D020E0B7
:101CB000286840F480302860F0E7FFF789FCC01BFB
:101CC000642800F24181286810F4003FF5D010E04C
:101CD000FFF77EFC0746286810F4003F09D0FFF7A5
:101CE00077FCC01B642800F22F81286810F4003FA5
:101CF000F5D12078CA4F10F0020F4FF0000948D0FC
:101D0000C848016811F00C0F15D0006800F00C00F5
:101D1000082804BF306810F4800F0CD0E06828B3A6
:101D20004FF001003860FFF753FC8046286810F040
:101D3000020F09D012E0286810F0020F1CBFE06803
:101D400001280BD000F066B9FFF742FCA0EB0800B9
:101D500002287DD8286810F0020FF5D02868216984
:101D600020F0F80040EAC100286012E0C7F80090B7
:101D7000FFF72EFC8046286810F0020F09D0FFF70D
:101D800027FCA0EB0800022862D8286810F0020F98
:101D9000F5D1207810F0080F2FD0A348DFF88CA2DF
:101DA0006169A9B101210160FFF712FC8046DAF8F0
:101DB000000010F0020F20D1FFF70AFCA0EB080092
:101DC000022845D8DAF8000010F0020FF4D014E031
:101DD000C0F80090FFF7FCFB8046DAF8000010F036
:101DE000020F0AD0FFF7F4FBA0EB080002282FD85F
:101DF000DAF8000010F0020FF4D1207810F0040F90
:101E00007ED08B484FF00008006810F0805F0AD148
:101E10008748016841F08051016000684FF0010877
:101E200000F080500090DFF80CB2DBF8000010F4F6
:101E3000807F1AD1DBF8000040F48070CBF80000FE
:101E4000FFF7C6FB8246DBF8000010F4807F00E05D
:101E50007AE00AD1FFF7BCFBA0EB0A00022873D896
:101E6000DBF8000010F4807FF4D0A068DFF8C8B180
:101E700001281DD00528DBF800000CBF40F004004D
:101E800020F00100CBF80000DBF800000CBF40F0B0
:101E9000010020F00400CBF80000A068E8B1FFF7D3
:101EA00097FB8246DBF8000010F0020F07D02BE012
:101EB000DBF8000040F00100CBF80000EDE7FFF791
:101EC00087FBA0EB0A0141F2883081423CD8DBF865
:101ED000000010F0020FF2D016E0FFF779FB824607
:101EE000DBF8000010F0020F0ED0FFF771FBA0EB43
:101EF0000A0141F28830814226D8DBF8000000E078
:101F00000AE010F0020FF0D1B8F1000F04D04848F9
:101F1000016821F080510160A069E8B34149096876
:101F200001F00C0108294ED00228C7F860900ED0AD
:101F3000FFF74EFB0446286810F0007F2CD0FFF717
:101F400047FB001B022839D90320BDE8F88FFFF7B3
:101F50003FFB8046286810F0007F09D0FFF738FB70
:101F6000A0EB08000228EFD8286810F0007FF5D118
:101F7000D4E907010843A16A304A490802EB01414C
:101F8000626A41EA8211084394F82C1040EA016029
:101F900030600120386600E052E0FFF719FB04468C
:101FA000286810F0007F4BD1FFF712FB001B0228BE
:101FB000CAD8286810F0007FF6D041E0286810F0F9
:101FC000007FBCD13CE0012808BFBDE8F88F306835
:101FD000E26900F4800191421CD1226A00F03F01C5
:101FE000914217D147F6C071626A0140B1EB821F7E
:101FF00010D1A26A4FF0FF3300F4403103EB5202DC
:10200000B1EB024F06D194F82C1000F07060B0EBE9
:10201000016F15D00120BDE8F88F000004380240A0
:102020000000474208380240800E474274380240A0
:102030004038024000700040703802400000FFFF4E
:102040000020E8E77047002804BF0120704770B502
:102050000446406A002500281CBF2561656104D044
:10206000A56294F8510058B905E06068B0F5827F28
:1020700018BFE561F4E784F85050204600F044F8BA
:10208000022084F851002068016821F040010160BD
:10209000A088218900F4827001F404410843A189D9
:1020A00001F400610843217C01F002010843217D15
:1020B00001F001010843218B01F400710843217FE5
:1020C00001F03801084394F8201001F08001084322
:1020D000218D01F40051084321680860A1690420A2
:1020E00000EA114094F8241001F010010143206827
:1020F00041602068C16921F40061C161656501200A
:1021000084F85100002070BD70B586B000240094A2
:10211000019402940394049401680646A1F180405E
:10212000B0F598301CBF06B070BD1C48016841F482
:1021300080510160006800F48050059018480168E3
:1021400041F0020101600068694600F0020005905C
:102150002820009002200190032003900520049085
:102160001048FFF72DF9114D0F4828604FF080609F
:1021700068604020C5E902040001C5E90404AC61BF
:10218000EC612C6228466C62FFF70AF8002818BF41
:10219000FEF785FCB564AE6306B070BD44380240FE
:1021A0003038024000040240406402400404002031
:1021B0002DE9F84F1D4616468A460446FFF708FAF1
:1021C000074694F85100012826D1BAF1000F18BF34
:1021D000002E71D094F8500001281DD04FF0010955
:1021E00084F85090032084F851004FF00008C4F8A0
:1021F0005480C4F830A0A686E686C4F83880A4F8D7
:102200003C80A4F83E80C4F84480C4F84080A068B4
:10221000B0F5004F03D00CE00220BDE8F88F206835
:10222000016821F0400101602068016841F48041AB
:1022300001602068016811F0400F03D1016841F08E
:1022400040010160E068B0F5006F606804D00028CC
:1022500018BF012E31D03AE0002818BF012E0BD153
:10226000206B21680088C860206B00F102002063A9
:10227000E08EA0F10100E086E08E002845D02068C5
:10228000816811F0020F09D0216B0988C160206BB1
:10229000801C2063E08E401EE08609E0FFF798F97D
:1022A000C01BA84203D3B5F1FF3F3BD100E0C5B34B
:1022B000E08E0028E3D128E048E0206B2168007818
:1022C0000873206B401C2063E08E401EE086E08E89
:1022D000D8B12068816811F0020F09D0216B09780C
:1022E0000173206B401C2063E08E401EE08609E0F5
:1022F000FFF76EF9C01BA84203D3B5F1FF3F11D120
:1023000000E075B1E08E0028E3D13A462946204628
:1023100001F0ECF900281CBF20206065A06860B9BE
:1023200007E0FFE784F8519084F850800320BDE86F
:10233000F88F2068C1688068009084F8519084F814
:102340005080606D002808BFBDE8F88F0120BDE80F
:10235000F88F000070B5044690F8510001281DD197
:10236000002912BF002A012070BD94F850000128F6
:1023700014D0012084F85000032084F85100002577
:1023800065652163A286E286A56365642564A587E9
:10239000E587A068B0F5004F02D00BE0022070BDC9
:1023A0002068016821F0400101602068016841F463
:1023B00080410160A16C19480864A16C1848C86389
:1023C000A16C1848C864A06C0565E38E2068216B79
:1023D00000F10C02A06CFEF78FFF38B1606D40F089
:1023E0001000606584F85050012070BD20680168BD
:1023F00011F0400F03D1016841F04001016084F801
:1024000050502068416841F02001416020684168D7
:1024100041F002014160002070BD00007B360008E1
:102420008536000859360008014812F01EBE00002B
:10243000586E002070477047704790F83C20012A82
:1024400004BF0220704730B4012480F83C400222CF
:1024500080F83D200268D2F804C093680D682CF023
:10246000700C45EA0C0CC2F804C00268A2F1804C62
:10247000BCF5803C18BFB2F1804F13D0A2F1804C64
:10248000BCF5806C1CBFA2F1804CBCF5006C09D07F
:10249000A2F1804CBCF5406C1CBFA2F1804CBCF595
:1024A000A03C04D1496823F080031943916080F86F
:1024B0003D40002180F83C1030BC084670470028A1
:1024C00004BF0120704710B5044690F83D0028B9BC
:1024D000002084F83C00204600F01EF8022084F81A
:1024E0003D00211D206801F009FA012084F8460012
:1024F00084F83E0084F83F0084F8400084F84100EE
:1025000084F8420084F8430084F8440084F84500CD
:1025100084F83D00002010BD08B50068A0F180419E
:10252000B1F5806118BF08BD0948016841F002019A
:1025300001600068002200F00200009005211D20CB
:10254000FFF702FABDE808401D20FFF7EDB90000D3
:102550004038024090F83D1001291CBF012070470F
:10256000022180F83D100168CA6842F00102CA6089
:102570000068A0F18041B1F5803118BFB0F1804F03
:1025800013D0A0F18041B1F580611CBFA0F1804162
:10259000B1F5006109D0A0F18041B1F540611CBFE7
:1025A000A0F18041B1F5A03104D1816801F00701AB
:1025B000062903D0016841F0010101600020704745
:1025C00090F83C200023012A0DBF02204FF0010C9F
:1025D00080F83CC0704770B4022280F83D20026849
:1025E000946824F0770424F47F4494600A68502AA5
:1025F00043D00CDC202A75D004DC002A18BF102A36
:102600000FD18BE0302A6DD0402A6DD009E0602ACE
:102610004DD0702A0ED0B2F5805F03D0B2F5005FC6
:1026200019D0012380F83DC0002180F83C1070BC17
:1026300018467047D1E901450268C968966844EABE
:10264000012126F47F4629433143916001688A685D
:1026500042F077020FE0D1E901450268C968966847
:1026600044EA012126F47F46294331439160016801
:102670008A6842F480428A60D4E70268CD684C6878
:10268000116A166A26F001061662966921F00A019F
:1026900026F0F00646EA05152143956111620168AE
:1026A0008A6822F0700242F057028A60BAE7026834
:1026B0004C68C968156A166A26F010061662966993
:1026C00025F0A00526F4704646EA013145EA0414D7
:1026D0009161146201688A6822F0700242F0670218
:1026E0008A609FE71AE0FFE702684C68C968156ACC
:1026F000166A26F001061662966925F00A0526F08C
:10270000F00646EA01112C439161146201688A685F
:1027100022F0700242F047028A6083E701688C6809
:1027200024F07004224342F007028A607AE770477F
:102730002DE9F04104460068C66805694FF00007BE
:1027400015F0020F18BF16F0020F13D06FF0020140
:102750000161012020772068806910F0030F204676
:1027600002D0FFF7E4FF04E000F08CF8204600F010
:102770008AF8277715F0040F18BF16F0040F14D04D
:1027800021686FF0040008610220207720688069CA
:1027900010F4407F204602D0FFF7C9FF04E000F0AC
:1027A00071F8204600F06FF8277715F0080F18BF72
:1027B00016F0080F14D021686FF00800086104209B
:1027C00020772068C06910F0030F204602D0FFF781
:1027D000AEFF04E000F056F8204600F054F82777EA
:1027E00015F0100F18BF16F0100F14D021686FF0FD
:1027F00010000861082020772068C06910F4407F2D
:10280000204602D0FFF793FF04E000F03BF820469B
:1028100000F039F8277715F0010F18BF16F0010FF7
:1028200006D021686FF001000861204600F02CF806
:1028300015F0800F18BF16F0800F06D021686FF0DA
:10284000800008612046FFF7F6FD15F0400F18BF25
:1028500016F0400F06D021686FF040000861204656
:1028600000F01BF815F0200F14BF16F0200FBDE884
:10287000F0816FF02000216808612046BDE8F0413A
:10288000FFF7DABD704770470068A0F18041B1F5ED
:10289000A03118BF7047FEF7C1BF7047002804BFC2
:1028A0000120704770B5044690F84100002520B91A
:1028B00084F84050204600F023F8242084F841009A
:1028C0002068C16821F40051C160204601F06EF813
:1028D0002068016921F4904101612068416921F07B
:1028E0002A0141612068C16841F40051C1606564FA
:1028F000202084F8410084F842006563002070BD08
:1029000000B587B0002100910191029103910491DB
:102910000168A1F18040B0F588301CBF07B000BD50
:102920001048016841F010010160006800F01000DB
:1029300005900D48016841F0010101600068694699
:1029400000F0010005904FF4C0600090022001905B
:1029500003200390072004900448FEF731FD07B0E0
:1029600000BD000044380240303802400000024000
:10297000FEE710B586B0002100910191029103910C
:1029800004910446008900900120019002900220E9
:10299000039069462068FEF713FD60890090694640
:1029A0006068FEF70DFD06B010BD2DE9F04186B060
:1029B0000026044600960196029603960496008926
:1029C000009001204FF00208CDE902083746694621
:1029D0002068FEF7F5FC07257006060E6089616821
:1029E00000048861022005F0CBFA60688169628981
:1029F00011438161012005F0C3FA21892068FEF7A7
:102A0000DDFD012818BF00200643691ECDB2E3D2C8
:102A10000021204600F00EFE0097019702970397D1
:102A20000497208900901120CDF80C800190694610
:102A30002068FEF7C5FC06B03046BDE8F08170B5F1
:102A40000E460446072560896168000488610220FB
:102A500005F096FA16F0800F05D02068816922896A
:102A60001143816103E0208921680004886101200D
:102A700005F086FA7006060E012005F081FA6068FE
:102A80008169628911438161012005F079FA691E2B
:102A9000CDB2D8D20021204600F0CCFDBDE8704078
:102AA000022005F06DBA10B50446012100F0CBFDFF
:102AB000022005F065FA0121204600F0BBFD01204F
:102AC00005F05EFA0021204600F0BDFD012005F072
:102AD00057FA0021204600F0ADFDBDE8104001206E
:102AE00005F04EBA10B50446002100F0A3FD022007
:102AF00005F046FA0021204600F0A5FD012005F072
:102B00003FFA0121204600F095FD012005F038FA3A
:102B10000121204600F097FDBDE81040012005F09E
:102B20002FBA2DE9F04186B00026044600960196A2
:102B30000296039604960089009001200227CDE9B1
:102B40000207052569462068FEF73AFC0121204668
:102B500000F070FD21892068FEF730FD4FF011086C
:102B600001280BD1681E85B2012005F009FAEDB1EC
:102B700021892068FEF722FD0128F3D000960196F6
:102B80000296039604962089CDE9000803976946CA
:102B90002068FEF715FC0021204600F04BFD0220C6
:102BA00005F0EEF906B00020BDE8F0810096019630
:102BB0000296039604962089CDE90008039769469A
:102BC0002068FEF7FDFB0021204600F033FD0220C7
:102BD00005F0D6F90021204600F035FD012005F072
:102BE000CFF90121204600F025FD012005F0C8F9AC
:102BF0000121204600F027FD012005F0C1F906B0B3
:102C00000120BDE8F0812DE9F0411D4690460C46BB
:102C10000646069FFFF747FF6006010E3046FFF7A6
:102C20000EFF3046FFF77DFF28B13046FFF75AFF11
:102C30000120BDE8F08141463046FFF700FF3046F5
:102C4000FFF76FFF3046FFF72EFF012000EB440037
:102C5000C1B23046FFF7F3FE3046FFF762FF0024B3
:102C6000002D88BFA5F101081ED93046FFF79DFE53
:102C70003855444514DA0021304600F0E4FC0120C8
:102C800005F07EF90121304600F0D4FC012005F06A
:102C900077F90021304600F0CDFC012005F070F9F5
:102CA000601CC4B2AC42E0D30121304600F0CBFC42
:102CB000012005F065F90121304600F0BBFC012040
:102CC00005F05EF90021304600F0B4FC022005F06A
:102CD00057F93046FFF706FF0020BDE8F08170B5D8
:102CE00016460C460546FFF7DEFE6006010E284636
:102CF000FFF7A5FE2846FFF714FF31462846FFF7E9
:102D00009EFE2846FFF70DFF2846FFF7CCFE012068
:102D100000EB4400C1B22846FFF791FE2846FFF7BA
:102D200000FF2846FFF741FE06462C4601212846B3
:102D300000F089FC012005F023F90121204600F074
:102D400079FC012005F01CF90021204600F072FCFE
:102D5000022005F015F92846FFF7C4FE304670BD85
:102D60002DE9F0411D4616460C460746FFF79BFE2F
:102D70006006010E3846FFF762FE3846FFF7D1FEC7
:102D800028B13846FFF7AEFE0120BDE8F08131469C
:102D90003846FFF754FE3846FFF7C3FE294638464B
:102DA000FFF74DFE3846FFF7BCFE3846FFF79AFEA8
:102DB000012005F0E5F80020BDE8F081F8B50746F0
:102DC0001C4616460D462A2000F0BEFA380A8DF839
:102DD00000008DF801700123022269461548FFF7B3
:102DE000E7F9300A8DF800008DF801600123022216
:102DF00069461048FFF7DCF92B2000F0A5FA280AF5
:102E00008DF800008DF8015001230222694609481F
:102E1000FFF7CEF9200A8DF800008DF8014001235C
:102E2000022269460348FFF7C3F9BDE8F8402C20A9
:102E300000F08ABAAC03002070B5A2EB000C0CF1D4
:102E40000104A3EB010C0CF1010C04FB0CFC14338A
:102E500014314FEA4C049BB289B2049DFFF7AEFFD8
:102E6000A2B22946BDE870400148FFF773BA0000DE
:102E7000AC03002010B514460B460246FFF79EFF38
:102E80002046BDE8104000F04FBA000070B586B093
:102E90000020029004902F48016841F00401016075
:102EA000016801F004010591016841F0020101602F
:102EB000016801F002010591016841F0080101601B
:102EC000016801F008010591016841F0010101600C
:102ED0000068012400F0010005904FF40040CDE9A6
:102EE00000041D4E0325694603953046FEF768FA37
:102EF0000122D1033046FEF766FB1020CDE9000425
:102F0000164E694603953046FEF75AFA0122102103
:102F10003046FEF758FB2003CDE90004104E694609
:102F200003953046FEF74CFA012211033046FEF7B6
:102F30004AFB0420CDE900040A4C6946039520466B
:102F4000FEF73EFA012204212046FEF73CFB06B0C4
:102F500070BD000030380240000002400004024012
:102F600000080240000C024038B5FFF78FFF002236
:102F70000421EA48FEF727FBE94C002210212046F5
:102F8000FEF721FB642004F0DBFF01221021204624
:102F9000FEF719FB642004F0D3FF112000F0D4F9F0
:102FA000782004F0CDFF362000F0CEF9C0208DF857
:102FB000000001231A466946DA48FFF7F9F83A207B
:102FC00000F0C2F905208DF8000001231A46694679
:102FD000D448FFF7EDF8B22000F0B6F90C208DF8D8
:102FE000000001231A466946CE48FFF7E1F80C209D
:102FF0008DF8000001231A466946CA48FFF7D8F841
:1030000000208DF8000001231A466946C548FFF7E5
:10301000CFF833208DF8000001231A466946C148D5
:10302000FFF7C6F833208DF8000001231A466946E1
:10303000BC48FFF7BDF8B72000F086F935208DF8C1
:10304000000001231A466946B648FFF7B1F8BB20D5
:1030500000F07AF919208DF8000001231A4669461C
:10306000B048FFF7A5F8C02000F06EF92C208DF8CD
:10307000000001231A466946AA48FFF799F8C220C2
:1030800000F062F901208DF800000346024669460F
:10309000A448FFF78DF8C32000F056F912208DF8F0
:1030A000000001231A4669469E48FFF781F8C420B4
:1030B00000F04AF920208DF8000001231A466946E5
:1030C0009848FFF775F8C62000F03EF90F208DF8FC
:1030D000000001231A4669469248FFF769F8D0209C
:1030E00000F032F9A4208DF8000001231A46694649
:1030F0008C48FFF75DF8A1208DF8000001231A46E7
:1031000069468848FFF754F8E02000F01DF9D02008
:103110008DF8000001231A4669468248FFF748F8F7
:1031200004208DF8000001231A4669467D48FFF708
:103130003FF80D208DF8000001231A4669467948B2
:10314000FFF736F811208DF8000001231A46694672
:103150007448FFF72DF813208DF8000001231A465C
:1031600069467048FFF724F82B208DF800000123F2
:103170001A4669466B48FFF71BF83F208DF80000A0
:1031800001231A4669466748FFF712F854208DF864
:10319000000001231A4669466248FFF709F84C20EF
:1031A0008DF8000001231A4669465E48FFF700F8D3
:1031B00018208DF8000001231A4669465948FEF789
:1031C000F7FF0D208DF8000001231A466946554887
:1031D000FEF7EEFF0B208DF8000001231A4669462A
:1031E0005048FEF7E5FF1F208DF8000001231A4626
:1031F00069464C48FEF7DCFF23208DF800000123D0
:103200001A4669464748FEF7D3FFE12000F09CF8D4
:10321000D0208DF8000001231A4669464148FEF788
:10322000C7FF04208DF8000001231A4669463D4877
:10323000FEF7BEFF0C208DF8000001231A466946F8
:103240003848FEF7B5FF11208DF8000001231A461B
:1032500069463448FEF7ACFF13208DF800000123C7
:103260001A4669462F48FEF7A3FF2C208DF8000070
:1032700001231A4669462B48FEF79AFF3F208DF836
:10328000000001231A4669462648FEF791FF4420B4
:103290008DF8000001231A4669462248FEF788FF90
:1032A00051208DF8000001231A4669461D48FEF79B
:1032B0007FFF2F208DF8000001231A466946194828
:1032C000FEF776FF1F208DF8000001231A4669469D
:1032D0001448FEF76DFF1F208DF8000001231A46E9
:1032E00069461048FEF764FF20208DF80000012396
:1032F0001A4669460B48FEF75BFF23208DF8000055
:1033000001231A4669460748FEF752FF212000F0C4
:103310001BF8BDE83840292000F016B8000C024028
:1033200000040240AC03002008B5010A8DF800102B
:103330008DF801000123022269460248FEF738FF9A
:1033400008BD0000AC03002038B50B4D0446002238
:103350004FF480512846FEF736F901238DF80040DE
:103360001A4669460548FEF723FF2846BDE838405F
:1033700001221103FEF727B900080240AC03002028
:1033800030B585B000241748009401940294144984
:10339000039401604FF48031C0E9011404610476A4
:1033A00080F820401049C0E90A140125C561C460B5
:1033B00080F830404561FDF73BFC002818BFFDF761
:1033C0006EFB0F20CDE90005694602940548FDF724
:1033D00069FB002818BFFDF762FB05B030BD000097
:1033E00000200140100300200100000F094808B52B
:1033F000016841F4800101600068002200F480004F
:10340000009005213A20FEF79FFABDE808403A20D7
:10341000FEF78ABA3038024010B5074A0021074843
:1034200025F052FF064C074A00212060064825F08F
:103430004BFF606010BD0000C00F0308B190020890
:1034400000000020E40F030815090008F0B587B05C
:103450000024294800940194029403940494016880
:1034600041F004010160016801F004010591016867
:1034700041F080010160016801F08001059101685F
:1034800041F002010160016801F00201059101684B
:1034900041F0010101600068184F00F00100059043
:1034A00000224FF400513846FEF78DF8144E0022EA
:1034B00001213046FEF787F84FF4005000900125B7
:1034C000CDE90154694638460394FDF779FF02209F
:1034D000CDE902500095694601953046FDF770FF31
:1034E00040F20440CDE90004694630460294FDF7FD
:1034F00067FF07B0F0BD000030380240000802400E
:10350000000402400D4810B50B4901600C494160B0
:1035100000214FF480428160C0E903124161816162
:10352000C1610162FEF75AF8002808BF10BDBDE86E
:103530001040FDF7B4BA0000005C004058030020C2
:10354000801A0600104810B50E4901604FF48271D0
:103550004160002102228160C0E903120122426120
:103560005202C0E906210162416281620A21C16200
:10357000FEF769FD002808BF10BDBDE81040FDF74B
:103580008EBA000000300140AC03002010B586B0B8
:10359000002418480094019402940394049414495C
:1035A000059401606321C0E9011440F2E731C0E9EC
:1035B00003148461FEF783FF002818BFFDF76FFA3C
:1035C0004FF48050009069460A48FEF7F9FF002842
:1035D00018BFFDF764FA049404A906480594FEF7A1
:1035E0002CFF002818BFFDF75AFA06B010BD0000E6
:1035F00000040040640400200C4810B50A49016032
:103600004FF4E1314160002181600C22C160C0E9CA
:1036100004128161C161FFF741F9002808BF10BDA4
:10362000BDE81040FDF73BBA00100140AC0400209B
:10363000FEE7FEE74289406800291ABF816911430D
:103640001104816170470289006800291ABF8169ED
:10365000114311048161704710B5806B01684A689D
:1036600022F003024A60416D41F0100141650121E1
:1036700080F85110FEF7E6FC10BD10B5806BFEF728
:10368000D9FE10BD38B50546846BFDF7A1FF024693
:103690002868006810F4807F23D12068416821F0F9
:1036A000200141602068416821F0020141606421ED
:1036B000204600F01BF818B1606D40F020006065F6
:1036C000A068002118B92068C26880680090E1866F
:1036D000012084F85100606D18B12046FEF7B2FC5D
:1036E00038BD2046FEF7A0FE38BD0000F8B51546EF
:1036F0000E460B46009204460122022100F02CF8EF
:10370000A0B9134813490068B0FBF1F04FF47A7187
:10371000484300906068B0F5827F0DD133460022A7
:1037200080212046009500F017F870B1606D40F0E0
:10373000200060650320F8BD009830B1401E009065
:103740002068806810F0800FF6D10020F8BD0000DE
:103750001400002000366E012DE9F8431F46904604
:1037600089460446089DFDF733FF401B3D1AFDF7CF
:103770002FFF06462A480068C0F3CB30684300900C
:103780002068806839EA00000CBF01200020404515
:1037900017D0B7F1FF3F0BD0FDF71AFF801BA842EF
:1037A00012D28DB10098002808BF0025401E00905D
:1037B0002068806839EA00000CBF012000204045E5
:1037C000E7D10020BDE8F8832068416821F0E001DE
:1037D00041606068B0F5827F0BD1A068B0F5004F02
:1037E00018BFB0F5806F04D12068016821F0400156
:1037F0000160A06AB0F5005F09D12068016821F47A
:10380000005101602068016841F40051016001200D
:1038100084F85100002084F850000320BDE8F883AC
:103820001400002010B54FF0E02000692DF0A0F941
:10383000012808BF10BDBDE810402CF05FBE00009D
:1038400030B593B000242148029403940494059465
:103850000C940D940E940F941094016841F08051D3
:103860000160006800F0805011901948016841F42F
:10387000404101600068022500F4404011900120A1
:103880000090000401908001CDE906500C200890C2
:103890006020CDE9090504200B906846FEF7C4F9C5
:1038A00008B172B6FEE70F20CDE90C054FF4805049
:1038B000CDE90E4003210CA81094FEF789F80028EA
:1038C00004BF13B030BD72B6FEE7000040380240BE
:1038D000007000400248016841F4700101607047C7
:1038E00088ED00E00148FEF723BF0000F40400204B
:1038F0000148FEF71DBF00006404002070B4026898
:10390000DFF898C0264B274C274D604518BFB0F113
:10391000804F04D098421CBFA042A84204D14E68F8
:1039200022F0700246EA0202604518BFB0F1804FF3
:1039300014D0984218BFA04210D0A8421CBFA0F1DA
:103940008043B3F5A03309D0A0F18043B3F5A2338F
:103950001CBFA0F18043B3F5A43303D1CB6822F49C
:1039600040721A434B6922F080021A4302608A684F
:10397000C2620A688262604504BF0969016301216D
:103980004161016911F0010F04BF70BC704701690A
:1039900021F00101016170BC70470000000001408E
:1039A0000004004000080040000C00402DE9F041F8
:1039B000044600680169E26821F440511143016145
:1039C0002169A068E26908436169114301432068E5
:1039D000C26822F4037222F414421143C1602068C9
:1039E0004169A26921F44071114341612068A0F14D
:1039F0008041B1F588311CBFA0F18041B1F58A3119
:103A000029D0FEF7B7F88446E16900201927254D33
:103A10003226B1F5004F21D06068830F8200ACFBE5
:103A20000701FCF7A9FC0146A5FB012040097A42E9
:103A3000424301EB820106EB0111A5FB012149097B
:103A400001F0F00202EB001001F00F0108442168C0
:103A50008860BDE8F081FEF79DF8D4E761684A18F8
:103A600040EB0003ACFB0701FCF786FC0346A5FB1B
:103A70000310410918460A016FF01803594300EB7F
:103A8000810006EBC000A5FB0010400900F0F80122
:103A900002EB410100F00700084421688860BDE89E
:103AA000F08100001F85EB51FEE70A684B68026059
:103AB0004360704710B54421074801F0C9FB00225C
:103AC0000A21064824F0FAFA054CA06002F0ACFC8A
:103AD0000020207010BD00006075002055640008B3
:103AE000F40100202DE9F04F80460C46B1F90000AA
:103AF000B2F9041083B0154688427CDCB4F90400A6
:103B0000B5F90010814276DCB4F90200B5F906106F
:103B1000884270DCB4F90600B5F9021081426ADC13
:103B200000222946204600F0C9F800281EBF0020C8
:103B300003B0BDE8F08F0026A088B4F90010E28839
:103B4000401A0FFA80FA60886B88121A181A00B2AD
:103B500012B2002812DDADF800106188ADF8021035
:103B6000A188ADF80410618801260844ADF806006C
:103B7000DDE90001C8F80000C8F80410B5F9061026
:103B80006088081A101A00B20028C4BFB4F90620D1
:103B90008A4213DD2188ADF80010E988ADF80210E3
:103BA000A188ADF80410E9880844ADF80600DDE905
:103BB000001208EBC600761C01604260B5F9027085
:103BC000B4F902008742D8BF0746B5F90600B4F938
:103BD00006108842A8BF0846C01B0FFA80F9288843
:103BE000B4F90010EB46401A00B20028C8BFB9F182
:103BF000000F13DD00E030E0ADF80010ADF802700A
:103C000021880844ADF8040007EB0900ADF8060070
:103C100008EBC6005946761CFFF747FFB5F90410BC
:103C20002088081AAAEB000000B2002811DDADF8C8
:103C30000010ADF80270A9880844ADF8040007EB45
:103C40000900ADF8060008EBC6005946761CFFF7E0
:103C50002CFF03B03046BDE8F08F03B04FF0FF30CB
:103C6000BDE8F08F30B4B1F90030B2F900C063455F
:103C7000D8BF63460380B1F902C0B2F90240A4453F
:103C8000D8BFA446A0F802C0B1F90440B2F904506C
:103C9000AC42A8BF2C468480B1F90610B2F90620C8
:103CA0009142A8BF1146C1800120A34203DC6145B7
:103CB000A4BF30BC7047002030BC7047F8B50D463B
:103CC0000446B0F90000B1F90010164688424BDBFB
:103CD000B4F90210B5F90220914245DBB4F90410A1
:103CE000B5F904208A423FDBB4F90610B5F9062085
:103CF0008A4239DBB6B3ADF800006088ADF8020047
:103D000032466946284600F09DF8002808BFF8BDF5
:103D1000A088ADF800006088ADF802003246694620
:103D2000284600F08FF8002808BFF8BD2088ADF8BD
:103D30000000E088ADF8020032466946284600F0EF
:103D400081F8002808BFF8BDA088ADF80000E08821
:103D5000ADF8020032466946284600F073F80028A4
:103D600008BFF8BD0120F8BD0020F8BDB0F9002063
:103D7000B1F904309A4213DCB0F90420B1F90030F3
:103D800093420DDCB0F90220B1F906309A4207DC0B
:103D9000B0F90600B1F902108842A4BF01207047B3
:103DA00000207047F8B50D460446B0F90400B1F99B
:103DB00000101646884243DBB4F90600B5F902103C
:103DC00088423DDBB4F90000B5F90410814237DBCD
:103DD000B4F90210B5F906208A4231DB76B3ADF8AA
:103DE00000006088ADF8020032466946284600F0BF
:103DF00029F818BBA088ADF800006088ADF8020073
:103E000032466946284600F01DF8B8B92088ADF85A
:103E10000000E088ADF8020032466946284600F00E
:103E200011F858B9A088ADF80000E088ADF802009C
:103E300032466946284600F005F808B10020F8BD72
:103E40000120F8BD70B50E46B1F90010B0F9003090
:103E500082B0144605469942A4BFB5F904008842D1
:103E600041DBB6F90220B5F902108A42A4BFB5F9C8
:103E700006C0944537DB002C72DDC01A401C00B22E
:103E800000EBD0704210ACEB0100401C00B200EB24
:103E9000D07040109042C8BF10468442C8BF04464C
:103EA000ADF80030288800222044ADF8040068886E
:103EB000ADF80200688831462044ADF80600684637
:103EC000FFF7C0FF90B1BDF8040031462044ADF8C3
:103ED0000400BDF806002044ADF8060068461FF057
:103EE000DBFE02B070BD02B0002070BDE888002289
:103EF000001BADF80200E888ADF8060031466846C0
:103F0000FFF7A0FF78B1BDF8040031462044ADF8BA
:103F10000400BDF80200001BADF8020068461FF067
:103F2000BBFE02B070BDA8880022001BADF80000E7
:103F3000A888ADF8040031466846FFF783FF80B1DA
:103F4000BDF800003146001BADF80000BDF80200CE
:103F5000001BADF8020068461FF09EFE02B070BD67
:103F60001CE06888ADF80200688800222044ADF8A3
:103F7000060031466846FFF765FF78B1BDF80000DE
:103F80003146001BADF80000BDF806002044ADF836
:103F9000060068461FF080FE02B070BD02B001202E
:103FA00070BDB1F90030B2F900C06345A8BF6346E7
:103FB0000380B1F90230B2F902C06345A8BF63467D
:103FC0004380B1F90430B2F904C06345D8BF6346F9
:103FD0008380B1F90610B2F906209142D8BF11468C
:103FE000C18070472DE9F04F91B0044624F002F8EB
:103FF0004FF0000BDFF8A085CDF840B00C90002CFE
:1040000014BFE06811F038F8C8F8040000691FF028
:10401000FDFCD8F804004069002818BF1FF0F6FC2A
:10402000D8F80400C0691FF0F1FCD8F80400006A59
:104030001FF0ECFCD8F804000169002902BFA0F8C9
:1040400050B111B0BDE8F08F0025B0F85001002844
:1040500088BF4FF0010961D9D8F80400411991F8DF
:104060003011002953D1B0F85001002400284ED956
:10407000D8F80400011991F83011002940D1A54267
:104080003ED000EBC40100EBC50030303031FFF70B
:104090006DFEA8B3D8F8040000EBC40101F13002B2
:1040A00000EBC50000F130016846FFF77AFF684673
:1040B0000EF08DF90646D8F8040000EBC50030304C
:1040C0000EF085F90746D8F8040000EBC400303044
:1040D0000EF07DF93844864212D2D8F80410BDF8AB
:1040E000002001EBC5000286BDF802204286BDF823
:1040F00004208286BDF80620C286081980F8309117
:10410000D8F80400641CB0F85001A042B0D8D8F828
:1041100004006D1CB0F85001A8429DD8D8F80410D6
:104120000868027C12F0010F7DD0C068406800284A
:1041300079D001F5AC7001F0F7F8002873D1D8F808
:1041400004000168C9688B680D930A68934208BF30
:104150004A680F9210F0A8FFCDE9030BCDF814B018
:10416000CDF818B0CDF81CB0CDF820B0CDF824B003
:10417000CDF828B0CDF82CB0D8F804000026B0F85F
:104180005001002888BF0DF1100949D9D8F8040062
:10419000811991F83011E1BB00F5AC7001F039F8EC
:1041A000070036D0D8F80400394600F5AC7001F0AD
:1041B00044F88246D8F80400394600EBC60000F106
:1041C000300204A8FFF78EFC0546B0F1FF3F1DD07A
:1041D0000024002D10DDD8F80400394600F5AC703D
:1041E00001F05BF809EBC4010A68496802604160AC
:1041F000601C44B2A542EEDCD8F80400394600F554
:10420000AC7001F09CF838461AF0CAF85FEA0A0769
:10421000C8D1D8F80400761CB0F85001B042B5D827
:10422000D8F8040000E023E000F5AC7000F0F1FFE6
:10423000040017D003980F99CDE900100294D8F824
:1042400004002346039A00680D99C06BD0F838C06B
:10425000E047D8F80400214600F5AC7000F0EDFF0F
:104260000400E7D1D8F8040000F5AC7000F0BCFF02
:1042700026F044FFD8F80410B1F85001F0B30968F3
:104280000A7C12F0010F20D0C968496800291CBFC0
:104290000024002819D9D8F80400011991F8301128
:1042A00059B900F5AC7001F021F8D8F8041001EB11
:1042B000C4010A6B496B02604160601C84B2D8F88B
:1042C0000400B0F85001A042E5D8D8F804004FF43B
:1042D000807130301AF00CFAD8F80400202100F573
:1042E00098701AF005FAD8F80400A0F850B10C98AC
:1042F00023F072FE1090D8F8040000E006E0006899
:10430000436A1BB1D8F800201099984719F08EFF26
:1043100000F094F900F064F9DFF8809207261F2777
:10432000D9F81450002D5DD110F0A6FE10F0D0FE8B
:1043300018F072FD054600227F211FF038FABDF803
:10434000000000226BF3020080B26BF3C70080B262
:104350006BF30C2080B26BF34F30ADF8000080B2ED
:104360000090BDF8001028461FF00BFABDF80000C1
:10437000002266F3020080B267F3C70080B267F3E1
:104380000C2080B266F34F30ADF8000080B2009090
:10439000BDF8001028461FF08BFA002203212846A2
:1043A0001FF072FA0022032128461FF05EFA002255
:1043B000032128461FF05EFA0022032128461FF041
:1043C0005EFA0022032128461FF06DFA74A12846E8
:1043D00019F01AFC00231A46062128461AF011FF8C
:1043E000C9F81450D9F8000023F0F6FDB0F5967F17
:1043F00011D2D8F8000041F28831814248D2D9F870
:10440000040010990844C9F80400D9F80800401CB9
:10441000C9F808003CE023F0EDFDC9F80000D8F829
:104420000400406800281DBF00684FF47A71B1FB9A
:10443000F0F16421D9F80400002804BF0120C9F874
:104440000400D9F80800002808BF0C4606D04FF435
:104450007A725043D9F80420B0FBF2F4C9F804B0E2
:10446000C9F808B08C4288BF0C46D9F81000204427
:10447000C9F81000D9F80C00401CC9F80C0023F052
:104480003DFEC0F16403224646A1284619F0F7FB21
:10449000484D6C68002C57D110F0EEFD10F018FE5E
:1044A00018F0BAFC044600227F211FF080F9BDF805
:1044B000000000226BF3020080B26BF3C70080B2F1
:1044C0006BF30C2080B26BF34F30ADF8000080B27C
:1044D0000090BDF8001020461FF053F9BDF8000011
:1044E000002266F3020080B267F3C70080B267F370
:1044F0000C2080B266F34F30ADF8000080B200901F
:10450000BDF8001020461FF0D3F9002203212046F9
:104510001FF0BAF90022032120461FF0A6F900225D
:10452000032120461FF0A6F90022032120461FF098
:10453000A6F91BA1204619F067FB00231A460421A7
:1045400020461AF05EFE6C60286823F045FDB0F549
:10455000967F9CBF11B0BDE8F08F23F04BFD286023
:1045600002A819F03FFF04990298401A820A5142AA
:1045700000EB81201049A1FB001083099DF8211058
:104580009DF82000CDE900010CA1204619F077FB31
:1045900011B0BDE8F08F0000A8000020C86E002018
:1045A0003F0000002575204650530A25752525201B
:1045B00043505500B0000020A1A0A0A025752E25D5
:1045C00075206B422075736564202825642025259D
:1045D000290A2564252520667261672E00000000E7
:1045E00070B50A4E0024C4EBC40556F82500002817
:1045F00018BF19F0D5FE06EB85001C211AF078F8DB
:10460000601CC4B2042CEED370BD00003C760020C8
:1046100009494968002908BF70474A6882421CBF9F
:104620000A68824203D10A7E42F001020A76496991
:104630000029F2D1704700007C0000207047000084
:104640000421014800F004BE5475002020210148D7
:1046500000F0FEBD6C7500202DE9F04184B00446E9
:10466000DDE90A571E004FF0000008BFB5F5807F56
:104670003DD0039001900290ADF80C100090ADF881
:104680000410ADF80A20ADF80E203B462A4631460C
:1046900068461FF055FA3B462A463146E84601A8CF
:1046A0001FF04EFA3B462A46314608F108001FF03B
:1046B00047FA3B462A46314608F10C001FF040FA03
:1046C000BDF90030BDF904209342B4BF9C46944626
:1046D000BDF90810BDF90C008142B4BF0D46054676
:1046E000AC450ADA9342ACBF1046184608E0208079
:1046F0006080481EA080501E57E08842C8BF084610
:10470000801E2080BDF90030BDF904108B42CCBF63
:104710009C468C46BDF90820BDF90C008242CCBFF6
:1047200015460546AC4504DD8B42D4BF0846184605
:1047300002E09042B8BF1046801CA080BDF9021074
:10474000BDF906008142B4BF8C468446BDF90A20FB
:10475000BDF90E309A42B4BF15461D46AC451BDA72
:104760008142B8BF0846801E6080BDF90230BDF9A5
:1047700006209342CCBF9C469446BDF90A10BDF971
:104780000E008142CCBF0D460546AC4509DD934283
:10479000D4BF1046184607E09A42B4BF10461846E8
:1047A000E1E78842B8BF0846801CE08004B0BDE85D
:1047B000F08100002DE9F04116460F468046124C6C
:1047C00023F018FC054633463A464146204617F08A
:1047D00051F920B10020A062E06950B111E02C2114
:1047E000204619F085FF4FF00040A0620020BDE890
:1047F000F081284623F0F0FBE061002804BF01208F
:10480000E0612046BDE8F0819075002010B51421CC
:104810000A4800F01DFD094800F022FD04000BD0FD
:10482000142119F065FF06482060064860600648BC
:10483000A0600648E06010BDFEE70000787500202B
:10484000C1B2010879B301082DB6010889B2010887
:1048500070B50D4604461021284619F049FF20681E
:104860000078012808D0022808BFE06809D0042891
:1048700008BF0A2005D005E0A08A2880E08A688069
:1048800000E0686020684268002A08BF70BD2946C1
:10489000BDE87040104700002DE9F04F0446808AC3
:1048A0008BB0002801BFE08A00280BB0BDE8F08F74
:1048B000D4F82C80B8F1000F40F0768100200090F1
:1048C000039017F087FC006800252E46007E0590B7
:1048D000208BA18A676A08442083608BE18A002FBD
:1048E0000844608300F01B810598404207904FF018
:1048F00000094FF4807ACDF82890B7F1000817D05E
:1049000000216E2240461CF01FFD48440FFA80F93A
:1049100000216D2240461CF017FD00B20AFB00F09A
:104920004FEA202A40461BF057FF5FEA0008E7D114
:10493000A0690490B9F1000F08BFBAF5807F0AD0D2
:10494000C9F1000001B24FF4803090FBFAF20AABDB
:1049500004A81FF0F5F8BDF910100029D8BF49428E
:10496000BDF912000028D8BF40428142CCBF0125CA
:104970000126102138461CF0BFFE00287ED0B34629
:10498000A946DA46C84638461BF08CFF10F0010FE6
:1049900008BF4FF0000910F0020F08BF4FF00008E9
:1049A00010F0040F08BF4FF0000B10F0080F08BF05
:1049B0004FF0000A38461CF08BF8099038461BF07F
:1049C00017FF089038461BF09BFF069038461CF0F6
:1049D00007F809990029DCBF0899002912DDBBF10D
:1049E000000F04D0BDF9122005998A4207DABAF106
:1049F000000F07D0BDF9122007998A4202DC0C2172
:104A00000097039106990029D8BF002812DDB9F15B
:104A1000000F04D0BDF9102005998A4207DAB8F1D9
:104A2000000F07D0BDF9102007998A4202DC03214C
:104A30000097039109990029D8BF4FF0000B0899FE
:104A40000029D8BF4FF0000A06990029D8BF4FF0BF
:104A500000090028D8BF4FF00008B9F1000F04D0BA
:104A6000BDF910100598814219DAB8F1000F04D091
:104A7000BDF910100798814211DD00E01AE0BBF18A
:104A8000000F04D0BDF912100598814207DABAF17F
:104A9000000F20D0BDF91210079881421BDC002DB9
:104AA00014BF03200C2094F8401060F3030184F835
:104AB000401026E04FF4807138461CF01DFE35EAA8
:104AC00000001ED14FF4007138461CF015FE36EA86
:104AD000000016D10FE04FF4807138461CF00CFE38
:104AE00035EA00000DD14FF4007138461CF004FE89
:104AF00036EA000005D138461BF06EFE071E7FF433
:104B0000F6AE009858B194F84010039860F3030192
:104B100084F840100098E062002020836083DDF874
:104B20000080B8F1000F04BF0BB0BDE8F08F80210A
:104B3000E56A28461CF0E0FDBC4EF70C00287DD04D
:104B400028461BF0BEFF012879D0022878D0032820
:104B50001CBFE686678774D028461BF0ABFF012890
:104B600070D002286FD003281CBFA68627876BD081
:104B7000A08E002808BFA686208F002808BF2787A0
:104B8000E08E002808BFE686608F002808BF678790
:104B900000220921404615F0CFFA607810F0020F8C
:104BA0001CBF0BB0BDE8F08F00264FF48077454660
:104BB00000216E2228461CF0C7FB304406B20021BB
:104BC0006D2228461CF0C0FB00B2C11700EB11603B
:104BD000001210FB07F007B228461BF0FDFD050090
:104BE000E6D1002E08BFB7F5807F0FD0C6F10000D8
:104BF00001B24FF4803090FBF7F002B24FF00000AA
:104C000000906B4604F114001EF09AFF0025ADF8E9
:104C10000850ADF8045094F8400000F00F0003284D
:104C200040467DD01BF054FF064640461BF0E0FD99
:104C30000C210091B4F91610034606E012E01BE0C7
:104C40002EE03FE05BE06EE080E03246404609F057
:104C50004FF9ADF8040040461BF024FE10F0010FA0
:104C600073D1A2E041F6FF733146324604F13400BD
:104C700000970DF0E0FB7BE7E88A0023401C01B2BF
:104C800041F6FF72284609F0BDFDE086E88A002360
:104C9000401E02B23146284609F0B4FD60875BE74A
:104CA000B5F91A10002341F6FF72284609F0AAFD53
:104CB000E086B5F91A2000233146284609F0A2FD06
:104CC000608749E7688BE98A0023401A401C00B2DC
:104CD00000EBD07001EB600909F1010001B241F66F
:104CE000FF72284609F08EFDE086A9F1010002B2AC
:104CF00000233146284609F085FD60872CE7B5F989
:104D00001410002341F6FF72284609F0F1FCA0863A
:104D1000B5F9142000233146284609F0E9FC00E0EB
:104D200031E0208724E7B5F91810002341F6FF721F
:104D3000284609F0DDFCA086B5F91820002331468D
:104D4000284609F0D5FC208712E734E0288BA98A91
:104D50000023401A401C00B200EBD07001EB600948
:104D600009F1010001B241F6FF72284609F0C0FCCA
:104D7000A086A9F1010002B200233146284609F0BD
:104D8000B7FC2087F4E61BF02BFE064640461BF0DE
:104D9000B7FD032100910246B4F914103346404692
:104DA00009F0A6F8ADF8080055E7BDF9081000298C
:104DB000C8BFADF8085010F0020F05D1BDF90810BA
:104DC0000029B8BFADF8085010F0040F05D1BDF9A7
:104DD00004100029C8BFADF8045010F0080F05D129
:104DE000BDF904000028B8BFADF8045001AA02A91B
:104DF000204627F08DF8BDF90420BDF90810404683
:104E000000F0F5FA607810F0020F1CBF0BB0BDE89F
:104E1000F08F208BBDF8081008442083608BBDF80C
:104E20000410084460830BB0BDE8F08F01E0FFFF81
:104E30002DE9F04FD0F82CA083B00446BAF1000F52
:104E400019BF94F8400010F00F0F03B0BDE8F08FC9
:104E500017F0C0F9019000684021457E50461CF0D3
:104E60004BFC0026002804BFE683A68350461BF0B7
:104E700021FE814650461BF024FE804694F84000F7
:104E80008E4F00F00F000C2802D003285CD093E076
:104E9000A683B8F1000F34D0B4F91E504FF0000BC8
:104EA00017F098F90068002D407E18BFC0F164012A
:104EB0000DD00BEB05000FFA80FB11FB05F087FB13
:104EC00000204211A2EBE07005B2002DF1D1ADF847
:104ED00000B0E6836A460021204627F019F841F623
:104EE000FF72BDF900305142504609F08BFCBDF80D
:104EF00000100123084402B2002150461DF076FF45
:104F00005AE0E08BC5F1640110FB01F087FB001053
:104F10004111A1EBE070E08350461BF069FC0546AF
:104F200050461BF0D5FD0C2100910246B4F91E102D
:104F30002B46504608F0DCFFE0830023024619466A
:104F400050461DF053FF37E0E683B9F1000F3FD024
:104F5000B4F91C504FF0000B17F03CF90068002D1D
:104F6000407E18BFC0F164010DD00BEB05000FFAB5
:104F700080FB11FB05F087FB00204211A2EBE070E3
:104F800005B2002DF1D1ADF800B0A683002269462C
:104F9000204626F0BDFF41F6FF72BDF900305142B8
:104FA000504609F0A5FBBDF800100123084401B2EA
:104FB000002250461DF01AFFA08B002807BFE08B8F
:104FC000002803B0BDE8F08FB8F1000F40D122E017
:104FD000A08BC5F1640110FB01F087FB00104111AB
:104FE000A1EBE070A08350461BF08AFC05465046BA
:104FF0001BF0F6FC032100910346B4F91C102A466D
:10500000504608F075FFA083002301461A4650461B
:105010001DF0ECFED0E750461BF05AFD0546504609
:105020001BF0E6FB002D0ADC002811DD002D06DA5E
:1050300001232A46002150461DF0D8FE08E0002832
:1050400006DA404202B20123002150461DF0CEFE96
:10505000B9F1000F1CD150461BF052FC05465046DA
:105060001BF0BEFC002D0ADC002811DD002D06DA45
:1050700001230022294650461DF0B8FE08E0002812
:1050800006DA404201B20123002250461DF0AEFE76
:105090000A215046019A15F04FF8607810F0020F7F
:1050A0001CBF03B0BDE8F08F94F8400020F00F0063
:1050B00084F84000E66203B0BDE8F08F1F85EB5135
:1050C00070B584B00D46040005D10FF0D5FF040083
:1050D00004BF04B070BD10F045F8002804BF04B050
:1050E00070BD94F8280010F0040F1CBF04B070BD10
:1050F0000026002D02BFA4F8506104B070BDADF8C9
:105100000060ADF8026020460FF0CEFF401EADF803
:105110000400204610F012F8401EADF806006A4662
:10512000294602A8FEF79EFD002804BF04B070BD0A
:105130002068017C11F0020F0CD0DDE90001C4E908
:105140000C010120A4F850016068002804BF04B0DD
:1051500070BD45E08269002A1CBF02A99047002566
:10516000B4F85001002811D904EBC50000F130015A
:10517000002202A8FEF7A2FD00281CBF04B070BDEB
:10518000681C85B2B4F85001A842EDD880B220283E
:105190000ED204EBC000BDF808100186BDF80A105D
:1051A0004186BDF80C108186BDF80E10C1860DE059
:1051B000A4F85061BDF800102186BDF80210618688
:1051C000BDF80410A186BDF80610E186B4F85001C0
:1051D000401CA4F850016068002804BF04B070BDF2
:1051E00023F052F804B070BD70B506000CBF002467
:1051F0007468002C08BF70BD211D306845582146D9
:10520000304600F09CF8204619F0CAF82C00F3D183
:1052100070BD002818BF4068704702004FF00000C2
:105220000CBF00215168002914BF12687047091D86
:10523000401C51580029FAD170470068091D405898
:105240007047006840587047002818BF8068704752
:1052500000224260C91C21F0030182600160704796
:1052600038B504460068083018F0C6FF002808BFAB
:1052700038BD002100912268031D11506168009122
:105280002268D150616811B100902268505060606E
:10529000A168002908BFA06038BD002812BF0029FE
:1052A0000020704738B5044640680D46A84204D136
:1052B0002046BDE83840FFF7D3BF2068083018F01B
:1052C0009BFF002808BF38BD21684959009011B1E3
:1052D00023680A1D9850009122681150009021689F
:1052E000021D4851009521688D5038BD38B50446DF
:1052F0000068083018F080FF002808BF38BD002182
:1053000000912268031DD150A168009122681150BC
:10531000A16819B100902268091D5050A060616811
:10532000002908BF606038BD30B14168002907BF5F
:1053300080680028002070474FF00100704781B05E
:10534000002804BF01B070470023D0F804C00A1D34
:105350008C450CD1016889584160002902BF8360E7
:1053600001B0704700930068435001B07047D0F817
:1053700008C08C450DD1026851588160002902BFD8
:10538000436001B0704700930068091D435001B0AD
:105390007047036859589A58009221B1D0F800C05C
:1053A0000B1D4CF803200091002A04BF01B0704788
:1053B0000068815001B0704710B5044600688268EB
:1053C000002A1CBF2146904720680068002818BFAB
:1053D0002060F4D110BD8068002818BFB0F9160015
:1053E0007047806800281CBF807E8009704770B5B8
:1053F000144605460E4651EA040004BF012070BD64
:1054000028461AF007F9AB6822463146188A30441C
:105410001882AB68588A20445882012328461CF021
:1054200078FD00220B21284614F086FE012818BFC3
:1054300070BD28461CF0ABFC012070BD77B581B073
:105440000E46050019D062221BF07EFF04001CBF2F
:105450002068002811D04FF06302314628461BF027
:1054600073FF10F0FF0208D0236820460399984785
:105470000090BDF80000ADF80C00039804B070BDBA
:105480002DE9F047054692B0408C1A9C40F004008C
:10549000688490462A841E468946228928461BF045
:1054A00053FF82462E842289494628461BF04CFF32
:1054B0000746688CBA4520F00400688407D14FEA9B
:1054C0000A41B1EB074F04BF12B0BDE8F087A5F861
:1054D00020802289494628461BF036FF80462E84CC
:1054E000494628460AF026FB21890068424621F0F9
:1054F0000FF820890B2821D147F6FF7AD04518BF35
:1055000057451BD128461CF091F800EBD07046108F
:1055100028461BF008F900EBD0704010D04505D1AB
:10552000711C421C9142B4BF88469046574505D134
:10553000711C421C9142B4BF0F4617461848FFF732
:105540008FFE06002BD03560C6E903872089B08026
:105550006846C6F808900CF003FA1248FF21CDE91E
:105560000060114802901148039000200890CDE996
:10557000090120880B9060889DF8421040420C90F1
:10558000E0680790002060F300018DF84210206968
:10559000069068460CF05AFA12B0BDE8F087FEE7B4
:1055A0008475002069F90208B5FB0208F1FA0208C7
:1055B00014210148FFF74CBE847500202DE9F84FF7
:1055C0000646408C0024C0F3C50017468846254691
:1055D000002888BF4FF0040940F2EC80F16809EB25
:1055E000C500085810F0007F40F0DD8080B230EA3E
:1055F000080214BF00230123B8430CBF0120002080
:10560000834200F0D08051F835A06A461021504600
:1056100020F01AFD00286DD16A461121504620F075
:1056200013FD002866D16A461221504620F00CFD79
:1056300000285FD16A461321504620F005FD00285E
:1056400058D16A461521504620F0FEFC002851D161
:105650006A461421504620F0F7FC00284AD16A46D9
:105660000A21504620F0F0FC002843D16A466B2105
:10567000504620F0E9FC00283CD16A466C21504697
:1056800020F0E2FC002835D16A460121504620F086
:10569000DBFC78BB6A460421504620F0D5FC48BBB1
:1056A0006A460221504620F0CFFC18BB6A4603210F
:1056B000504620F0C9FCE8B96A460521504620F062
:1056C000C3FCB8B96A460621504620F0BDFC88B933
:1056D0006A463221504620F0B7FC58B96A466E211E
:1056E000504620F0B1FC28B96A466D21504620F0A2
:1056F000ABFC10B10320BDE8F88F6A466921504623
:1057000020F0A2FC002849D16A466A21504620F0C8
:105710009BFCE8BB6A466E21504620F095FCB8BB66
:105720006A466D21504620F08FFC88BB6A463721BF
:10573000504620F089FC58BB6A463821504620F07C
:1057400083FC28BB6A463521504620F07DFCF8B921
:105750006A464021504620F077FCC8B96A46452188
:10576000504620F071FC98B96A464121504620F01D
:105770006BFC68B96A464221504620F065FC38B996
:105780006A464321504620F05FFC08B96A4600E0B3
:1057900004E04921504620F057FC08B1022402E001
:1057A000002C08BF0124708C6D1CC0F3C500A842FA
:1057B0003FF614AF2046BDE8F88F0000014840686E
:1057C00070470000A80000200548002141600161E9
:1057D000C1608160016041610248016041607047C1
:1057E000C86E0020B0000020C0F30410072888BF56
:1057F00007207047A0F57F41FF390ABF1F2000280E
:10580000704771283EBF0849085C7047713880B204
:105810000649096829B1064A526890423CBF085CB3
:105820007047002070470000E8F2040820020020C2
:105830003402002010B518210348FFF709FD034981
:105840000120087010BD0000307500203C020020CF
:10585000002808BF70472DE9F04117460D46044661
:10586000FAF730FEDFF8388006462946D8F80820D7
:10587000204690470546D8F80820601939469047D9
:1058800001462846721A824238BFBDE8F0814318AB
:10589000E35C2354401C8242F9D2BDE8F081000051
:1058A000500200202DE9F041084E15460C46726862
:1058B0001F46804619469047206020B138687268BC
:1058C0004044002190472860BDE8F081500200204C
:1058D0002DE9FF4F8DB083461A980026002818BF87
:1058E0000680BBF1000F02BF002011B0BDE8F08FB1
:1058F0009BF80000002819BF0E98002811B0BDE8E1
:10590000F08F4FF0000005901B9810F0060F18BFA5
:10591000002014D01BF800100A2918BF0D2904D04C
:10592000002918BF401CF5D100E0401C1A9900293D
:105930001CBF4FF0FF320A8011B0BDE8F08F1B98FA
:1059400010F0020F1CBF41F6FF70109004960498EF
:105950001BF8000000281CBF1098002840F3E380CB
:105960000498002106910BEB000201920E9A0A9214
:105970000F9A0992109A08921B9A0DF11809079232
:1059800000280CBF012000200B90019800281FBFA9
:10599000007800280A98002808BF0F467BD012F034
:1059A000020F1CBF41F6FF7008904FF00007704ACD
:1059B00002970397009752683C46BA464FF0FF386B
:1059C00002A9019890470546029803900198007833
:1059D000002877D0664A03A9019852689047009042
:1059E00007980AF1010A10F0010F14D00020232DAE
:1059F00004D0F1B201291FD068B15BE016F0FF00BE
:105A000008BF012656D0012808BF002603D002286F
:105A100008BF00264ED02946009A0A9814F000FDCF
:105A200000B221180CB2002802DD0998204404B20B
:105A3000B8F1FF3F0AD103E0202D08BF022639E06C
:105A40000998211A08988142C8BFB8460A2D18BF84
:105A50000D2D18D0A5F59C4145F2A5104FF0000280
:105A6000814210D943A10020097859B141A10B5CB2
:105A7000AB4201D1012205E0401CC0B23DA1095C4E
:105A80000029F3D172B1002F08BFB8F1FF3F06D152
:105A9000B9F1000F00E027E018BFC9F80040AAF1F3
:105AA000010A0FE0B9F1000F04D0B8F1FF3F08BFC1
:105AB000C9F80040DDE9027002900198009DC05DC8
:105AC000002887D1B8F1FF3F05D00B98002818BFF8
:105AD000474635D008E0BAF1000F04D00D2D04BFC1
